{
  "abi": [
    {
      "inputs": [
        {
          "internalType": "contract IVotes",
          "name": "wDHN",
          "type": "address"
        },
        {
          "internalType": "uint256",
          "name": "numMilestones",
          "type": "uint256"
        },
        {
          "internalType": "uint256",
          "name": "ogTeamTokens",
          "type": "uint256"
        },
        {
          "internalType": "uint256",
          "name": "initLock",
          "type": "uint256"
        },
        {
          "internalType": "address",
          "name": "tokenAdress",
          "type": "address"
        },
        {
          "internalType": "address[]",
          "name": "lockedTeamAddresses",
          "type": "address[]"
        },
        {
          "internalType": "uint256[]",
          "name": "lockedTeamTokens",
          "type": "uint256[]"
        }
      ],
      "stateMutability": "nonpayable",
      "type": "constructor"
    },
    {
      "anonymous": false,
      "inputs": [
        {
          "indexed": true,
          "internalType": "address",
          "name": "_token",
          "type": "address"
        },
        {
          "indexed": false,
          "internalType": "uint256",
          "name": "amount",
          "type": "uint256"
        }
      ],
      "name": "ERC20Released",
      "type": "event"
    },
    {
      "inputs": [],
      "name": "_wDHN",
      "outputs": [
        {
          "internalType": "contract IVotes",
          "name": "",
          "type": "address"
        }
      ],
      "stateMutability": "view",
      "type": "function"
    },
    {
      "inputs": [
        {
          "internalType": "address",
          "name": "",
          "type": "address"
        }
      ],
      "name": "_walletToEmployee",
      "outputs": [
        {
          "internalType": "address",
          "name": "employee_address",
          "type": "address"
        },
        {
          "internalType": "uint256",
          "name": "received_tokens",
          "type": "uint256"
        },
        {
          "internalType": "uint256",
          "name": "tokens_promised",
          "type": "uint256"
        },
        {
          "internalType": "uint64",
          "name": "lock_start",
          "type": "uint64"
        },
        {
          "internalType": "uint16",
          "name": "milestone",
          "type": "uint16"
        },
        {
          "internalType": "bool",
          "name": "employment_status",
          "type": "bool"
        },
        {
          "internalType": "bool",
          "name": "og_employee",
          "type": "bool"
        }
      ],
      "stateMutability": "view",
      "type": "function"
    },
    {
      "inputs": [
        {
          "internalType": "address",
          "name": "_callerAddress",
          "type": "address"
        }
      ],
      "name": "get_date",
      "outputs": [
        {
          "internalType": "uint256",
          "name": "",
          "type": "uint256"
        }
      ],
      "stateMutability": "view",
      "type": "function"
    },
    {
      "inputs": [
        {
          "internalType": "uint256",
          "name": "amount",
          "type": "uint256"
        },
        {
          "internalType": "address",
          "name": "new_employee_address",
          "type": "address"
        }
      ],
      "name": "new_employee",
      "outputs": [],
      "stateMutability": "nonpayable",
      "type": "function"
    },
    {
      "inputs": [],
      "name": "release",
      "outputs": [],
      "stateMutability": "nonpayable",
      "type": "function"
    },
    {
      "inputs": [
        {
          "internalType": "address",
          "name": "employeeAddress",
          "type": "address"
        }
      ],
      "name": "remove_employee",
      "outputs": [],
      "stateMutability": "nonpayable",
      "type": "function"
    }
  ],
  "bytecode": "60806040523480156200001157600080fd5b5060405162001338380380620013388339810160408190526200003491620005b1565b600080546001600160a01b0319166001600160a01b0389161781556005879055825160075560068690555b82518110156200040c5760006001600160a01b0316838281518110620000895762000089620006cc565b60200260200101516001600160a01b031603620001055760405162461bcd60e51b815260206004820152603060248201527f436f6e7374727563746f723a206c6f636b6564207465616d206164647265737360448201526f206973207a65726f206164647265737360801b606482015260840160405180910390fd5b6000600754600654620001199190620006e2565b905060006040518060e001604052808685815181106200013d576200013d620006cc565b6020908102919091018101516001600160a01b03908116835260008383018190526040808501889052426001600160401b039081166060808801919091526080808801859052600160a0808a0182905260c0998a018290526002805480840182559088528b517f405787fa12a823e0f2b7631cc41b3ba8828b3321ca811111fa75cd3aa3bb5ace600490920291820180546001600160a01b03191691909a1617909855978a01517f405787fa12a823e0f2b7631cc41b3ba8828b3321ca811111fa75cd3aa3bb5acf880155938901517f405787fa12a823e0f2b7631cc41b3ba8828b3321ca811111fa75cd3aa3bb5ad0870155908801517f405787fa12a823e0f2b7631cc41b3ba8828b3321ca811111fa75cd3aa3bb5ad19095018054918901519689015197890151959092166001600160501b0319909116176801000000000000000061ffff909616959095029490941761ffff60501b19166a01000000000000000000009515159590950260ff60581b1916949094176b010000000000000000000000921515929092029190911790915587519293508392889087908110620002ec57620002ec620006cc565b6020908102919091018101516001600160a01b039081168352828201939093526040918201600020845181546001600160a01b031916941693909317835583015160018301558201516002820155606082015160039091018054608084015160a085015160c0909501516001600160401b039094166001600160501b0319909216919091176801000000000000000061ffff909216919091021761ffff60501b19166a01000000000000000000009315159390930260ff60581b1916929092176b010000000000000000000000911515919091021790558451620003f490869085908110620003df57620003df620006cc565b6020026020010151836200044a60201b60201c565b50508080620004039062000705565b9150506200005f565b5050600980546001600160a01b039384166001600160a01b03199182161790915560008054979093169616959095179055600355506200072d915050565b60005460405163026e402b60e01b81526001600160a01b038481166004830152602482018490529091169063026e402b90604401600060405180830381600087803b1580156200049957600080fd5b505af1158015620004ae573d6000803e3d6000fd5b505050505050565b6001600160a01b0381168114620004cc57600080fd5b50565b634e487b7160e01b600052604160045260246000fd5b604051601f8201601f191681016001600160401b0381118282101715620005105762000510620004cf565b604052919050565b60006001600160401b03821115620005345762000534620004cf565b5060051b60200190565b600082601f8301126200055057600080fd5b8151602062000569620005638362000518565b620004e5565b82815260059290921b840181019181810190868411156200058957600080fd5b8286015b84811015620005a657805183529183019183016200058d565b509695505050505050565b600080600080600080600060e0888a031215620005cd57600080fd5b8751620005da81620004b6565b809750506020808901519650604089015195506060890151945060808901516200060481620004b6565b60a08a01519094506001600160401b03808211156200062257600080fd5b818b0191508b601f8301126200063757600080fd5b815162000648620005638262000518565b81815260059190911b8301840190848101908e8311156200066857600080fd5b938501935b82851015620006935784516200068381620004b6565b825293850193908501906200066d565b60c08e01519097509450505080831115620006ad57600080fd5b5050620006bd8a828b016200053e565b91505092959891949750929550565b634e487b7160e01b600052603260045260246000fd5b6000826200070057634e487b7160e01b600052601260045260246000fd5b500490565b6000600182016200072657634e487b7160e01b600052601160045260246000fd5b5060010190565b610bfb806200073d6000396000f3fe608060405234801561001057600080fd5b50600436106100625760003560e01c8063584697821461006757806371a9f6721461012a57806379ecbc381461015557806386d1a69f1461016a578063af00cd9114610172578063b5d6645514610193575b600080fd5b6100d5610075366004610a3c565b600160208190526000918252604090912080549181015460028201546003909201546001600160a01b039093169290919067ffffffffffffffff81169061ffff600160401b8204169060ff600160501b8204811691600160581b90041687565b604080516001600160a01b03909816885260208801969096529486019390935267ffffffffffffffff909116606085015261ffff166080840152151560a0830152151560c082015260e0015b60405180910390f35b60005461013d906001600160a01b031681565b6040516001600160a01b039091168152602001610121565b610168610163366004610a57565b6101c8565b005b6101686104a7565b610185610180366004610a3c565b6105ab565b604051908152602001610121565b6101686101a1366004610a3c565b6001600160a01b03166000908152600160205260409020600301805460ff60501b19169055565b60006040518060e00160405280836001600160a01b03168152602001600081526020018481526020014267ffffffffffffffff168152602001600061ffff168152602001600115158152602001600015158152509050600281908060018154018082558091505060019003906000526020600020906004020160009091909190915060008201518160000160006101000a8154816001600160a01b0302191690836001600160a01b03160217905550602082015181600101556040820151816002015560608201518160030160006101000a81548167ffffffffffffffff021916908367ffffffffffffffff16021790555060808201518160030160086101000a81548161ffff021916908361ffff16021790555060a082015181600301600a6101000a81548160ff02191690831515021790555060c082015181600301600b6101000a81548160ff02191690831515021790555050508060016000846001600160a01b03166001600160a01b0316815260200190815260200160002060008201518160000160006101000a8154816001600160a01b0302191690836001600160a01b03160217905550602082015181600101556040820151816002015560608201518160030160006101000a81548167ffffffffffffffff021916908367ffffffffffffffff16021790555060808201518160030160086101000a81548161ffff021916908361ffff16021790555060a082015181600301600a6101000a81548160ff02191690831515021790555060c082015181600301600b6101000a81548160ff02191690831515021790555090505060008054906101000a90046001600160a01b03166001600160a01b031663026e402b83856040518363ffffffff1660e01b81526004016104709291906001600160a01b03929092168252602082015260400190565b600060405180830381600087803b15801561048a57600080fd5b505af115801561049e573d6000803e3d6000fd5b50505050505050565b33600081815260016020819052604090912060030154600160501b900460ff161515146105295760405162461bcd60e51b815260206004820152602560248201527f546869732061646472657373206973206e6f20612063757272656e7420656d706044820152646c6f79656560d81b60648201526084015b60405180910390fd5b6000610535334261061b565b905080600460008282546105499190610a99565b90915550506009546040518281526001600160a01b03909116907fc0e523490dd523c33b1878c9eb14ff46991e3f5b2cd33710918618f2a39cba1b9060200160405180910390a26009546105a7906001600160a01b03163383610774565b5050565b6001600160a01b03811660009081526001602052604081206003015461ffff600160401b8204169067ffffffffffffffff16826105eb8362278d00610ab1565b62ffffff166003548367ffffffffffffffff166106089190610a99565b6106129190610a99565b95945050505050565b6001600160a01b038216600090815260016020526040812060030154600554600160401b90910461ffff169081106106a55760405162461bcd60e51b815260206004820152602760248201527f416c6c206d696c6573746f6e6520726577617264732068617665206265656e2060448201526618db185a5b595960ca1b6064820152608401610520565b6106ae846105ab565b8367ffffffffffffffff161115610768576005546001600160a01b03851660009081526001602052604081206002015490916106e991610adc565b6001600160a01b03861660009081526001602081905260409091206003015491925061072091600160401b900461ffff1690610afe565b6001600160a01b0386166000908152600160205260409020600301805461ffff92909216600160401b0269ffff000000000000000019909216919091179055915061076e9050565b60009150505b92915050565b604080516001600160a01b038416602482015260448082018490528251808303909101815260649091019091526020810180516001600160e01b031663a9059cbb60e01b1790526107c69084906107cb565b505050565b6000610820826040518060400160405280602081526020017f5361666545524332303a206c6f772d6c6576656c2063616c6c206661696c6564815250856001600160a01b031661089d9092919063ffffffff16565b8051909150156107c6578080602001905181019061083e9190610b24565b6107c65760405162461bcd60e51b815260206004820152602a60248201527f5361666545524332303a204552433230206f7065726174696f6e20646964206e6044820152691bdd081cdd58d8d9595960b21b6064820152608401610520565b60606108ac84846000856108b6565b90505b9392505050565b6060824710156109175760405162461bcd60e51b815260206004820152602660248201527f416464726573733a20696e73756666696369656e742062616c616e636520666f6044820152651c8818d85b1b60d21b6064820152608401610520565b6001600160a01b0385163b61096e5760405162461bcd60e51b815260206004820152601d60248201527f416464726573733a2063616c6c20746f206e6f6e2d636f6e74726163740000006044820152606401610520565b600080866001600160a01b0316858760405161098a9190610b76565b60006040518083038185875af1925050503d80600081146109c7576040519150601f19603f3d011682016040523d82523d6000602084013e6109cc565b606091505b50915091506109dc8282866109e7565b979650505050505050565b606083156109f65750816108af565b825115610a065782518084602001fd5b8160405162461bcd60e51b81526004016105209190610b92565b80356001600160a01b0381168114610a3757600080fd5b919050565b600060208284031215610a4e57600080fd5b6108af82610a20565b60008060408385031215610a6a57600080fd5b82359150610a7a60208401610a20565b90509250929050565b634e487b7160e01b600052601160045260246000fd5b60008219821115610aac57610aac610a83565b500190565b600062ffffff80831681851681830481118215151615610ad357610ad3610a83565b02949350505050565b600082610af957634e487b7160e01b600052601260045260246000fd5b500490565b600061ffff808316818516808303821115610b1b57610b1b610a83565b01949350505050565b600060208284031215610b3657600080fd5b815180151581146108af57600080fd5b60005b83811015610b61578181015183820152602001610b49565b83811115610b70576000848401525b50505050565b60008251610b88818460208701610b46565b9190910192915050565b6020815260008251806020840152610bb1816040850160208701610b46565b601f01601f1916919091016040019291505056fea26469706673582212209be562b8b814351d81c5634bdb10abb9ca5f1bd858a7deaa3d488ffe6bb1a6eb64736f6c634300080f0033",
  "bytecodeSha1": "fad4bb67653e145f77f003f644d497bf9ef8c389",
  "compiler": {
    "evm_version": "istanbul",
    "optimizer": {
      "enabled": true,
      "runs": 200
    },
    "version": "0.8.15+commit.e14f2714"
  },
  "contractName": "LockContract",
  "language": "Solidity",
  "natspec": {
    "details": "This contract handles the vesting of a ERC20 tokens for a given beneficiary. Custody of the _token amount can be given to this contract, which will release the _token to the beneficiary following a given schedule. The vesting schedule is established by a key->value pair in the form of _duration->_amounts. This two arrays have the same length and are iterated by the _milestone variable",
    "kind": "dev",
    "methods": {
      "constructor": {
        "details": "Set the beneficiary, start timestamp and locking durations and amounts."
      },
      "get_date(address)": {
        "details": "Calculates the date of the next milestone (used to see if the milestone has passed or not) --TO DO: remove the if stament, possibly only needed line 136  (need to see if 30 days can be multiplied by zero)"
      },
      "new_employee(uint256,address)": {
        "details": "Adds a new employee. --TO DO: See how the split enters--"
      },
      "release()": {
        "details": "Release the tokens according to milestone passage. Emits a {ERC20Released} event."
      },
      "remove_employee(address)": {
        "details": "Changes the employee status of an employee who is quitting. --TO DO: Make multi-sig--"
      }
    },
    "title": "LockContract",
    "version": 1
  },
  "opcodes": "PUSH1 0x80 PUSH1 0x40 MSTORE CALLVALUE DUP1 ISZERO PUSH2 0x10 JUMPI PUSH1 0x0 DUP1 REVERT JUMPDEST POP PUSH1 0x4 CALLDATASIZE LT PUSH2 0x62 JUMPI PUSH1 0x0 CALLDATALOAD PUSH1 0xE0 SHR DUP1 PUSH4 0x58469782 EQ PUSH2 0x67 JUMPI DUP1 PUSH4 0x71A9F672 EQ PUSH2 0x12A JUMPI DUP1 PUSH4 0x79ECBC38 EQ PUSH2 0x155 JUMPI DUP1 PUSH4 0x86D1A69F EQ PUSH2 0x16A JUMPI DUP1 PUSH4 0xAF00CD91 EQ PUSH2 0x172 JUMPI DUP1 PUSH4 0xB5D66455 EQ PUSH2 0x193 JUMPI JUMPDEST PUSH1 0x0 DUP1 REVERT JUMPDEST PUSH2 0xD5 PUSH2 0x75 CALLDATASIZE PUSH1 0x4 PUSH2 0xA3C JUMP JUMPDEST PUSH1 0x1 PUSH1 0x20 DUP2 SWAP1 MSTORE PUSH1 0x0 SWAP2 DUP3 MSTORE PUSH1 0x40 SWAP1 SWAP2 KECCAK256 DUP1 SLOAD SWAP2 DUP2 ADD SLOAD PUSH1 0x2 DUP3 ADD SLOAD PUSH1 0x3 SWAP1 SWAP3 ADD SLOAD PUSH1 0x1 PUSH1 0x1 PUSH1 0xA0 SHL SUB SWAP1 SWAP4 AND SWAP3 SWAP1 SWAP2 SWAP1 PUSH8 0xFFFFFFFFFFFFFFFF DUP2 AND SWAP1 PUSH2 0xFFFF PUSH1 0x1 PUSH1 0x40 SHL DUP3 DIV AND SWAP1 PUSH1 0xFF PUSH1 0x1 PUSH1 0x50 SHL DUP3 DIV DUP2 AND SWAP2 PUSH1 0x1 PUSH1 0x58 SHL SWAP1 DIV AND DUP8 JUMP JUMPDEST PUSH1 0x40 DUP1 MLOAD PUSH1 0x1 PUSH1 0x1 PUSH1 0xA0 SHL SUB SWAP1 SWAP9 AND DUP9 MSTORE PUSH1 0x20 DUP9 ADD SWAP7 SWAP1 SWAP7 MSTORE SWAP5 DUP7 ADD SWAP4 SWAP1 SWAP4 MSTORE PUSH8 0xFFFFFFFFFFFFFFFF SWAP1 SWAP2 AND PUSH1 0x60 DUP6 ADD MSTORE PUSH2 0xFFFF AND PUSH1 0x80 DUP5 ADD MSTORE ISZERO ISZERO PUSH1 0xA0 DUP4 ADD MSTORE ISZERO ISZERO PUSH1 0xC0 DUP3 ADD MSTORE PUSH1 0xE0 ADD JUMPDEST PUSH1 0x40 MLOAD DUP1 SWAP2 SUB SWAP1 RETURN JUMPDEST PUSH1 0x0 SLOAD PUSH2 0x13D SWAP1 PUSH1 0x1 PUSH1 0x1 PUSH1 0xA0 SHL SUB AND DUP2 JUMP JUMPDEST PUSH1 0x40 MLOAD PUSH1 0x1 PUSH1 0x1 PUSH1 0xA0 SHL SUB SWAP1 SWAP2 AND DUP2 MSTORE PUSH1 0x20 ADD PUSH2 0x121 JUMP JUMPDEST PUSH2 0x168 PUSH2 0x163 CALLDATASIZE PUSH1 0x4 PUSH2 0xA57 JUMP JUMPDEST PUSH2 0x1C8 JUMP JUMPDEST STOP JUMPDEST PUSH2 0x168 PUSH2 0x4A7 JUMP JUMPDEST PUSH2 0x185 PUSH2 0x180 CALLDATASIZE PUSH1 0x4 PUSH2 0xA3C JUMP JUMPDEST PUSH2 0x5AB JUMP JUMPDEST PUSH1 0x40 MLOAD SWAP1 DUP2 MSTORE PUSH1 0x20 ADD PUSH2 0x121 JUMP JUMPDEST PUSH2 0x168 PUSH2 0x1A1 CALLDATASIZE PUSH1 0x4 PUSH2 0xA3C JUMP JUMPDEST PUSH1 0x1 PUSH1 0x1 PUSH1 0xA0 SHL SUB AND PUSH1 0x0 SWAP1 DUP2 MSTORE PUSH1 0x1 PUSH1 0x20 MSTORE PUSH1 0x40 SWAP1 KECCAK256 PUSH1 0x3 ADD DUP1 SLOAD PUSH1 0xFF PUSH1 0x50 SHL NOT AND SWAP1 SSTORE JUMP JUMPDEST PUSH1 0x0 PUSH1 0x40 MLOAD DUP1 PUSH1 0xE0 ADD PUSH1 0x40 MSTORE DUP1 DUP4 PUSH1 0x1 PUSH1 0x1 PUSH1 0xA0 SHL SUB AND DUP2 MSTORE PUSH1 0x20 ADD PUSH1 0x0 DUP2 MSTORE PUSH1 0x20 ADD DUP5 DUP2 MSTORE PUSH1 0x20 ADD TIMESTAMP PUSH8 0xFFFFFFFFFFFFFFFF AND DUP2 MSTORE PUSH1 0x20 ADD PUSH1 0x0 PUSH2 0xFFFF AND DUP2 MSTORE PUSH1 0x20 ADD PUSH1 0x1 ISZERO ISZERO DUP2 MSTORE PUSH1 0x20 ADD PUSH1 0x0 ISZERO ISZERO DUP2 MSTORE POP SWAP1 POP PUSH1 0x2 DUP2 SWAP1 DUP1 PUSH1 0x1 DUP2 SLOAD ADD DUP1 DUP3 SSTORE DUP1 SWAP2 POP POP PUSH1 0x1 SWAP1 SUB SWAP1 PUSH1 0x0 MSTORE PUSH1 0x20 PUSH1 0x0 KECCAK256 SWAP1 PUSH1 0x4 MUL ADD PUSH1 0x0 SWAP1 SWAP2 SWAP1 SWAP2 SWAP1 SWAP2 POP PUSH1 0x0 DUP3 ADD MLOAD DUP2 PUSH1 0x0 ADD PUSH1 0x0 PUSH2 0x100 EXP DUP2 SLOAD DUP2 PUSH1 0x1 PUSH1 0x1 PUSH1 0xA0 SHL SUB MUL NOT AND SWAP1 DUP4 PUSH1 0x1 PUSH1 0x1 PUSH1 0xA0 SHL SUB AND MUL OR SWAP1 SSTORE POP PUSH1 0x20 DUP3 ADD MLOAD DUP2 PUSH1 0x1 ADD SSTORE PUSH1 0x40 DUP3 ADD MLOAD DUP2 PUSH1 0x2 ADD SSTORE PUSH1 0x60 DUP3 ADD MLOAD DUP2 PUSH1 0x3 ADD PUSH1 0x0 PUSH2 0x100 EXP DUP2 SLOAD DUP2 PUSH8 0xFFFFFFFFFFFFFFFF MUL NOT AND SWAP1 DUP4 PUSH8 0xFFFFFFFFFFFFFFFF AND MUL OR SWAP1 SSTORE POP PUSH1 0x80 DUP3 ADD MLOAD DUP2 PUSH1 0x3 ADD PUSH1 0x8 PUSH2 0x100 EXP DUP2 SLOAD DUP2 PUSH2 0xFFFF MUL NOT AND SWAP1 DUP4 PUSH2 0xFFFF AND MUL OR SWAP1 SSTORE POP PUSH1 0xA0 DUP3 ADD MLOAD DUP2 PUSH1 0x3 ADD PUSH1 0xA PUSH2 0x100 EXP DUP2 SLOAD DUP2 PUSH1 0xFF MUL NOT AND SWAP1 DUP4 ISZERO ISZERO MUL OR SWAP1 SSTORE POP PUSH1 0xC0 DUP3 ADD MLOAD DUP2 PUSH1 0x3 ADD PUSH1 0xB PUSH2 0x100 EXP DUP2 SLOAD DUP2 PUSH1 0xFF MUL NOT AND SWAP1 DUP4 ISZERO ISZERO MUL OR SWAP1 SSTORE POP POP POP DUP1 PUSH1 0x1 PUSH1 0x0 DUP5 PUSH1 0x1 PUSH1 0x1 PUSH1 0xA0 SHL SUB AND PUSH1 0x1 PUSH1 0x1 PUSH1 0xA0 SHL SUB AND DUP2 MSTORE PUSH1 0x20 ADD SWAP1 DUP2 MSTORE PUSH1 0x20 ADD PUSH1 0x0 KECCAK256 PUSH1 0x0 DUP3 ADD MLOAD DUP2 PUSH1 0x0 ADD PUSH1 0x0 PUSH2 0x100 EXP DUP2 SLOAD DUP2 PUSH1 0x1 PUSH1 0x1 PUSH1 0xA0 SHL SUB MUL NOT AND SWAP1 DUP4 PUSH1 0x1 PUSH1 0x1 PUSH1 0xA0 SHL SUB AND MUL OR SWAP1 SSTORE POP PUSH1 0x20 DUP3 ADD MLOAD DUP2 PUSH1 0x1 ADD SSTORE PUSH1 0x40 DUP3 ADD MLOAD DUP2 PUSH1 0x2 ADD SSTORE PUSH1 0x60 DUP3 ADD MLOAD DUP2 PUSH1 0x3 ADD PUSH1 0x0 PUSH2 0x100 EXP DUP2 SLOAD DUP2 PUSH8 0xFFFFFFFFFFFFFFFF MUL NOT AND SWAP1 DUP4 PUSH8 0xFFFFFFFFFFFFFFFF AND MUL OR SWAP1 SSTORE POP PUSH1 0x80 DUP3 ADD MLOAD DUP2 PUSH1 0x3 ADD PUSH1 0x8 PUSH2 0x100 EXP DUP2 SLOAD DUP2 PUSH2 0xFFFF MUL NOT AND SWAP1 DUP4 PUSH2 0xFFFF AND MUL OR SWAP1 SSTORE POP PUSH1 0xA0 DUP3 ADD MLOAD DUP2 PUSH1 0x3 ADD PUSH1 0xA PUSH2 0x100 EXP DUP2 SLOAD DUP2 PUSH1 0xFF MUL NOT AND SWAP1 DUP4 ISZERO ISZERO MUL OR SWAP1 SSTORE POP PUSH1 0xC0 DUP3 ADD MLOAD DUP2 PUSH1 0x3 ADD PUSH1 0xB PUSH2 0x100 EXP DUP2 SLOAD DUP2 PUSH1 0xFF MUL NOT AND SWAP1 DUP4 ISZERO ISZERO MUL OR SWAP1 SSTORE POP SWAP1 POP POP PUSH1 0x0 DUP1 SLOAD SWAP1 PUSH2 0x100 EXP SWAP1 DIV PUSH1 0x1 PUSH1 0x1 PUSH1 0xA0 SHL SUB AND PUSH1 0x1 PUSH1 0x1 PUSH1 0xA0 SHL SUB AND PUSH4 0x26E402B DUP4 DUP6 PUSH1 0x40 MLOAD DUP4 PUSH4 0xFFFFFFFF AND PUSH1 0xE0 SHL DUP2 MSTORE PUSH1 0x4 ADD PUSH2 0x470 SWAP3 SWAP2 SWAP1 PUSH1 0x1 PUSH1 0x1 PUSH1 0xA0 SHL SUB SWAP3 SWAP1 SWAP3 AND DUP3 MSTORE PUSH1 0x20 DUP3 ADD MSTORE PUSH1 0x40 ADD SWAP1 JUMP JUMPDEST PUSH1 0x0 PUSH1 0x40 MLOAD DUP1 DUP4 SUB DUP2 PUSH1 0x0 DUP8 DUP1 EXTCODESIZE ISZERO DUP1 ISZERO PUSH2 0x48A JUMPI PUSH1 0x0 DUP1 REVERT JUMPDEST POP GAS CALL ISZERO DUP1 ISZERO PUSH2 0x49E JUMPI RETURNDATASIZE PUSH1 0x0 DUP1 RETURNDATACOPY RETURNDATASIZE PUSH1 0x0 REVERT JUMPDEST POP POP POP POP POP POP POP JUMP JUMPDEST CALLER PUSH1 0x0 DUP2 DUP2 MSTORE PUSH1 0x1 PUSH1 0x20 DUP2 SWAP1 MSTORE PUSH1 0x40 SWAP1 SWAP2 KECCAK256 PUSH1 0x3 ADD SLOAD PUSH1 0x1 PUSH1 0x50 SHL SWAP1 DIV PUSH1 0xFF AND ISZERO ISZERO EQ PUSH2 0x529 JUMPI PUSH1 0x40 MLOAD PUSH3 0x461BCD PUSH1 0xE5 SHL DUP2 MSTORE PUSH1 0x20 PUSH1 0x4 DUP3 ADD MSTORE PUSH1 0x25 PUSH1 0x24 DUP3 ADD MSTORE PUSH32 0x546869732061646472657373206973206E6F20612063757272656E7420656D70 PUSH1 0x44 DUP3 ADD MSTORE PUSH5 0x6C6F796565 PUSH1 0xD8 SHL PUSH1 0x64 DUP3 ADD MSTORE PUSH1 0x84 ADD JUMPDEST PUSH1 0x40 MLOAD DUP1 SWAP2 SUB SWAP1 REVERT JUMPDEST PUSH1 0x0 PUSH2 0x535 CALLER TIMESTAMP PUSH2 0x61B JUMP JUMPDEST SWAP1 POP DUP1 PUSH1 0x4 PUSH1 0x0 DUP3 DUP3 SLOAD PUSH2 0x549 SWAP2 SWAP1 PUSH2 0xA99 JUMP JUMPDEST SWAP1 SWAP2 SSTORE POP POP PUSH1 0x9 SLOAD PUSH1 0x40 MLOAD DUP3 DUP2 MSTORE PUSH1 0x1 PUSH1 0x1 PUSH1 0xA0 SHL SUB SWAP1 SWAP2 AND SWAP1 PUSH32 0xC0E523490DD523C33B1878C9EB14FF46991E3F5B2CD33710918618F2A39CBA1B SWAP1 PUSH1 0x20 ADD PUSH1 0x40 MLOAD DUP1 SWAP2 SUB SWAP1 LOG2 PUSH1 0x9 SLOAD PUSH2 0x5A7 SWAP1 PUSH1 0x1 PUSH1 0x1 PUSH1 0xA0 SHL SUB AND CALLER DUP4 PUSH2 0x774 JUMP JUMPDEST POP POP JUMP JUMPDEST PUSH1 0x1 PUSH1 0x1 PUSH1 0xA0 SHL SUB DUP2 AND PUSH1 0x0 SWAP1 DUP2 MSTORE PUSH1 0x1 PUSH1 0x20 MSTORE PUSH1 0x40 DUP2 KECCAK256 PUSH1 0x3 ADD SLOAD PUSH2 0xFFFF PUSH1 0x1 PUSH1 0x40 SHL DUP3 DIV AND SWAP1 PUSH8 0xFFFFFFFFFFFFFFFF AND DUP3 PUSH2 0x5EB DUP4 PUSH3 0x278D00 PUSH2 0xAB1 JUMP JUMPDEST PUSH3 0xFFFFFF AND PUSH1 0x3 SLOAD DUP4 PUSH8 0xFFFFFFFFFFFFFFFF AND PUSH2 0x608 SWAP2 SWAP1 PUSH2 0xA99 JUMP JUMPDEST PUSH2 0x612 SWAP2 SWAP1 PUSH2 0xA99 JUMP JUMPDEST SWAP6 SWAP5 POP POP POP POP POP JUMP JUMPDEST PUSH1 0x1 PUSH1 0x1 PUSH1 0xA0 SHL SUB DUP3 AND PUSH1 0x0 SWAP1 DUP2 MSTORE PUSH1 0x1 PUSH1 0x20 MSTORE PUSH1 0x40 DUP2 KECCAK256 PUSH1 0x3 ADD SLOAD PUSH1 0x5 SLOAD PUSH1 0x1 PUSH1 0x40 SHL SWAP1 SWAP2 DIV PUSH2 0xFFFF AND SWAP1 DUP2 LT PUSH2 0x6A5 JUMPI PUSH1 0x40 MLOAD PUSH3 0x461BCD PUSH1 0xE5 SHL DUP2 MSTORE PUSH1 0x20 PUSH1 0x4 DUP3 ADD MSTORE PUSH1 0x27 PUSH1 0x24 DUP3 ADD MSTORE PUSH32 0x416C6C206D696C6573746F6E6520726577617264732068617665206265656E20 PUSH1 0x44 DUP3 ADD MSTORE PUSH7 0x18DB185A5B5959 PUSH1 0xCA SHL PUSH1 0x64 DUP3 ADD MSTORE PUSH1 0x84 ADD PUSH2 0x520 JUMP JUMPDEST PUSH2 0x6AE DUP5 PUSH2 0x5AB JUMP JUMPDEST DUP4 PUSH8 0xFFFFFFFFFFFFFFFF AND GT ISZERO PUSH2 0x768 JUMPI PUSH1 0x5 SLOAD PUSH1 0x1 PUSH1 0x1 PUSH1 0xA0 SHL SUB DUP6 AND PUSH1 0x0 SWAP1 DUP2 MSTORE PUSH1 0x1 PUSH1 0x20 MSTORE PUSH1 0x40 DUP2 KECCAK256 PUSH1 0x2 ADD SLOAD SWAP1 SWAP2 PUSH2 0x6E9 SWAP2 PUSH2 0xADC JUMP JUMPDEST PUSH1 0x1 PUSH1 0x1 PUSH1 0xA0 SHL SUB DUP7 AND PUSH1 0x0 SWAP1 DUP2 MSTORE PUSH1 0x1 PUSH1 0x20 DUP2 SWAP1 MSTORE PUSH1 0x40 SWAP1 SWAP2 KECCAK256 PUSH1 0x3 ADD SLOAD SWAP2 SWAP3 POP PUSH2 0x720 SWAP2 PUSH1 0x1 PUSH1 0x40 SHL SWAP1 DIV PUSH2 0xFFFF AND SWAP1 PUSH2 0xAFE JUMP JUMPDEST PUSH1 0x1 PUSH1 0x1 PUSH1 0xA0 SHL SUB DUP7 AND PUSH1 0x0 SWAP1 DUP2 MSTORE PUSH1 0x1 PUSH1 0x20 MSTORE PUSH1 0x40 SWAP1 KECCAK256 PUSH1 0x3 ADD DUP1 SLOAD PUSH2 0xFFFF SWAP3 SWAP1 SWAP3 AND PUSH1 0x1 PUSH1 0x40 SHL MUL PUSH10 0xFFFF0000000000000000 NOT SWAP1 SWAP3 AND SWAP2 SWAP1 SWAP2 OR SWAP1 SSTORE SWAP2 POP PUSH2 0x76E SWAP1 POP JUMP JUMPDEST PUSH1 0x0 SWAP2 POP POP JUMPDEST SWAP3 SWAP2 POP POP JUMP JUMPDEST PUSH1 0x40 DUP1 MLOAD PUSH1 0x1 PUSH1 0x1 PUSH1 0xA0 SHL SUB DUP5 AND PUSH1 0x24 DUP3 ADD MSTORE PUSH1 0x44 DUP1 DUP3 ADD DUP5 SWAP1 MSTORE DUP3 MLOAD DUP1 DUP4 SUB SWAP1 SWAP2 ADD DUP2 MSTORE PUSH1 0x64 SWAP1 SWAP2 ADD SWAP1 SWAP2 MSTORE PUSH1 0x20 DUP2 ADD DUP1 MLOAD PUSH1 0x1 PUSH1 0x1 PUSH1 0xE0 SHL SUB AND PUSH4 0xA9059CBB PUSH1 0xE0 SHL OR SWAP1 MSTORE PUSH2 0x7C6 SWAP1 DUP5 SWAP1 PUSH2 0x7CB JUMP JUMPDEST POP POP POP JUMP JUMPDEST PUSH1 0x0 PUSH2 0x820 DUP3 PUSH1 0x40 MLOAD DUP1 PUSH1 0x40 ADD PUSH1 0x40 MSTORE DUP1 PUSH1 0x20 DUP2 MSTORE PUSH1 0x20 ADD PUSH32 0x5361666545524332303A206C6F772D6C6576656C2063616C6C206661696C6564 DUP2 MSTORE POP DUP6 PUSH1 0x1 PUSH1 0x1 PUSH1 0xA0 SHL SUB AND PUSH2 0x89D SWAP1 SWAP3 SWAP2 SWAP1 PUSH4 0xFFFFFFFF AND JUMP JUMPDEST DUP1 MLOAD SWAP1 SWAP2 POP ISZERO PUSH2 0x7C6 JUMPI DUP1 DUP1 PUSH1 0x20 ADD SWAP1 MLOAD DUP2 ADD SWAP1 PUSH2 0x83E SWAP2 SWAP1 PUSH2 0xB24 JUMP JUMPDEST PUSH2 0x7C6 JUMPI PUSH1 0x40 MLOAD PUSH3 0x461BCD PUSH1 0xE5 SHL DUP2 MSTORE PUSH1 0x20 PUSH1 0x4 DUP3 ADD MSTORE PUSH1 0x2A PUSH1 0x24 DUP3 ADD MSTORE PUSH32 0x5361666545524332303A204552433230206F7065726174696F6E20646964206E PUSH1 0x44 DUP3 ADD MSTORE PUSH10 0x1BDD081CDD58D8D95959 PUSH1 0xB2 SHL PUSH1 0x64 DUP3 ADD MSTORE PUSH1 0x84 ADD PUSH2 0x520 JUMP JUMPDEST PUSH1 0x60 PUSH2 0x8AC DUP5 DUP5 PUSH1 0x0 DUP6 PUSH2 0x8B6 JUMP JUMPDEST SWAP1 POP JUMPDEST SWAP4 SWAP3 POP POP POP JUMP JUMPDEST PUSH1 0x60 DUP3 SELFBALANCE LT ISZERO PUSH2 0x917 JUMPI PUSH1 0x40 MLOAD PUSH3 0x461BCD PUSH1 0xE5 SHL DUP2 MSTORE PUSH1 0x20 PUSH1 0x4 DUP3 ADD MSTORE PUSH1 0x26 PUSH1 0x24 DUP3 ADD MSTORE PUSH32 0x416464726573733A20696E73756666696369656E742062616C616E636520666F PUSH1 0x44 DUP3 ADD MSTORE PUSH6 0x1C8818D85B1B PUSH1 0xD2 SHL PUSH1 0x64 DUP3 ADD MSTORE PUSH1 0x84 ADD PUSH2 0x520 JUMP JUMPDEST PUSH1 0x1 PUSH1 0x1 PUSH1 0xA0 SHL SUB DUP6 AND EXTCODESIZE PUSH2 0x96E JUMPI PUSH1 0x40 MLOAD PUSH3 0x461BCD PUSH1 0xE5 SHL DUP2 MSTORE PUSH1 0x20 PUSH1 0x4 DUP3 ADD MSTORE PUSH1 0x1D PUSH1 0x24 DUP3 ADD MSTORE PUSH32 0x416464726573733A2063616C6C20746F206E6F6E2D636F6E7472616374000000 PUSH1 0x44 DUP3 ADD MSTORE PUSH1 0x64 ADD PUSH2 0x520 JUMP JUMPDEST PUSH1 0x0 DUP1 DUP7 PUSH1 0x1 PUSH1 0x1 PUSH1 0xA0 SHL SUB AND DUP6 DUP8 PUSH1 0x40 MLOAD PUSH2 0x98A SWAP2 SWAP1 PUSH2 0xB76 JUMP JUMPDEST PUSH1 0x0 PUSH1 0x40 MLOAD DUP1 DUP4 SUB DUP2 DUP6 DUP8 GAS CALL SWAP3 POP POP POP RETURNDATASIZE DUP1 PUSH1 0x0 DUP2 EQ PUSH2 0x9C7 JUMPI PUSH1 0x40 MLOAD SWAP2 POP PUSH1 0x1F NOT PUSH1 0x3F RETURNDATASIZE ADD AND DUP3 ADD PUSH1 0x40 MSTORE RETURNDATASIZE DUP3 MSTORE RETURNDATASIZE PUSH1 0x0 PUSH1 0x20 DUP5 ADD RETURNDATACOPY PUSH2 0x9CC JUMP JUMPDEST PUSH1 0x60 SWAP2 POP JUMPDEST POP SWAP2 POP SWAP2 POP PUSH2 0x9DC DUP3 DUP3 DUP7 PUSH2 0x9E7 JUMP JUMPDEST SWAP8 SWAP7 POP POP POP POP POP POP POP JUMP JUMPDEST PUSH1 0x60 DUP4 ISZERO PUSH2 0x9F6 JUMPI POP DUP2 PUSH2 0x8AF JUMP JUMPDEST DUP3 MLOAD ISZERO PUSH2 0xA06 JUMPI DUP3 MLOAD DUP1 DUP5 PUSH1 0x20 ADD REVERT JUMPDEST DUP2 PUSH1 0x40 MLOAD PUSH3 0x461BCD PUSH1 0xE5 SHL DUP2 MSTORE PUSH1 0x4 ADD PUSH2 0x520 SWAP2 SWAP1 PUSH2 0xB92 JUMP JUMPDEST DUP1 CALLDATALOAD PUSH1 0x1 PUSH1 0x1 PUSH1 0xA0 SHL SUB DUP2 AND DUP2 EQ PUSH2 0xA37 JUMPI PUSH1 0x0 DUP1 REVERT JUMPDEST SWAP2 SWAP1 POP JUMP JUMPDEST PUSH1 0x0 PUSH1 0x20 DUP3 DUP5 SUB SLT ISZERO PUSH2 0xA4E JUMPI PUSH1 0x0 DUP1 REVERT JUMPDEST PUSH2 0x8AF DUP3 PUSH2 0xA20 JUMP JUMPDEST PUSH1 0x0 DUP1 PUSH1 0x40 DUP4 DUP6 SUB SLT ISZERO PUSH2 0xA6A JUMPI PUSH1 0x0 DUP1 REVERT JUMPDEST DUP3 CALLDATALOAD SWAP2 POP PUSH2 0xA7A PUSH1 0x20 DUP5 ADD PUSH2 0xA20 JUMP JUMPDEST SWAP1 POP SWAP3 POP SWAP3 SWAP1 POP JUMP JUMPDEST PUSH4 0x4E487B71 PUSH1 0xE0 SHL PUSH1 0x0 MSTORE PUSH1 0x11 PUSH1 0x4 MSTORE PUSH1 0x24 PUSH1 0x0 REVERT JUMPDEST PUSH1 0x0 DUP3 NOT DUP3 GT ISZERO PUSH2 0xAAC JUMPI PUSH2 0xAAC PUSH2 0xA83 JUMP JUMPDEST POP ADD SWAP1 JUMP JUMPDEST PUSH1 0x0 PUSH3 0xFFFFFF DUP1 DUP4 AND DUP2 DUP6 AND DUP2 DUP4 DIV DUP2 GT DUP3 ISZERO ISZERO AND ISZERO PUSH2 0xAD3 JUMPI PUSH2 0xAD3 PUSH2 0xA83 JUMP JUMPDEST MUL SWAP5 SWAP4 POP POP POP POP JUMP JUMPDEST PUSH1 0x0 DUP3 PUSH2 0xAF9 JUMPI PUSH4 0x4E487B71 PUSH1 0xE0 SHL PUSH1 0x0 MSTORE PUSH1 0x12 PUSH1 0x4 MSTORE PUSH1 0x24 PUSH1 0x0 REVERT JUMPDEST POP DIV SWAP1 JUMP JUMPDEST PUSH1 0x0 PUSH2 0xFFFF DUP1 DUP4 AND DUP2 DUP6 AND DUP1 DUP4 SUB DUP3 GT ISZERO PUSH2 0xB1B JUMPI PUSH2 0xB1B PUSH2 0xA83 JUMP JUMPDEST ADD SWAP5 SWAP4 POP POP POP POP JUMP JUMPDEST PUSH1 0x0 PUSH1 0x20 DUP3 DUP5 SUB SLT ISZERO PUSH2 0xB36 JUMPI PUSH1 0x0 DUP1 REVERT JUMPDEST DUP2 MLOAD DUP1 ISZERO ISZERO DUP2 EQ PUSH2 0x8AF JUMPI PUSH1 0x0 DUP1 REVERT JUMPDEST PUSH1 0x0 JUMPDEST DUP4 DUP2 LT ISZERO PUSH2 0xB61 JUMPI DUP2 DUP2 ADD MLOAD DUP4 DUP3 ADD MSTORE PUSH1 0x20 ADD PUSH2 0xB49 JUMP JUMPDEST DUP4 DUP2 GT ISZERO PUSH2 0xB70 JUMPI PUSH1 0x0 DUP5 DUP5 ADD MSTORE JUMPDEST POP POP POP POP JUMP JUMPDEST PUSH1 0x0 DUP3 MLOAD PUSH2 0xB88 DUP2 DUP5 PUSH1 0x20 DUP8 ADD PUSH2 0xB46 JUMP JUMPDEST SWAP2 SWAP1 SWAP2 ADD SWAP3 SWAP2 POP POP JUMP JUMPDEST PUSH1 0x20 DUP2 MSTORE PUSH1 0x0 DUP3 MLOAD DUP1 PUSH1 0x20 DUP5 ADD MSTORE PUSH2 0xBB1 DUP2 PUSH1 0x40 DUP6 ADD PUSH1 0x20 DUP8 ADD PUSH2 0xB46 JUMP JUMPDEST PUSH1 0x1F ADD PUSH1 0x1F NOT AND SWAP2 SWAP1 SWAP2 ADD PUSH1 0x40 ADD SWAP3 SWAP2 POP POP JUMP INVALID LOG2 PUSH5 0x6970667358 0x22 SLT KECCAK256 SWAP12 0xE5 PUSH3 0xB8B814 CALLDATALOAD SAR DUP2 0xC5 PUSH4 0x4BDB10AB 0xB9 0xCA 0x5F SHL 0xD8 PC 0xA7 0xDE 0xAA RETURNDATASIZE BASEFEE DUP16 INVALID PUSH12 0xB1A6EB64736F6C634300080F STOP CALLER ",
  "sha1": "6e7b833f5a39053b5567b5382a2c2ba8ed1bc029",
  "source": "// SPDX-License-Identifier: MIT\n// OpenZeppelin Contracts (last updated v4.7.0) (finance/LockContract.sol)\npragma solidity ^0.8.0;\n\nimport \"@openzeppelin/contracts/token/ERC20/utils/SafeERC20.sol\";\nimport \"./IVotes.sol\";\nimport \"@openzeppelin/contracts/utils/Address.sol\";\nimport \"@openzeppelin/contracts/utils/Context.sol\";\nimport \"@openzeppelin/contracts/utils/math/Math.sol\";\n\n/**\n * @title LockContract\n * @dev This contract handles the vesting of a ERC20 tokens for a given beneficiary. Custody of the _token amount\n * can be given to this contract, which will release the _token to the beneficiary following a given schedule.\n * The vesting schedule is established by a key->value pair in the form of _duration->_amounts. This two arrays\n * have the same length and are iterated by the _milestone variable\n */\ncontract LockContract is Context {\n\n    //Token\n    IVotes public _wDHN;\n\n    //Events\n    event ERC20Released(address indexed _token, uint256 amount);\n\n    //Mappings\n    mapping(address => Employee) public _walletToEmployee;\n\n    //Structs\n    struct Employee {\n        address employee_address;// probably can take it out\n\n        uint256 received_tokens;// amount of tokens the employee has received\n\n        uint256 tokens_promised;// amount of tokens the employee is owed\n\n        uint64 lock_start;// saves the date of the initial locking of the contract\n\n        uint16 milestone;// how many milestone rewards has the employee claimed\n\n        bool employment_status;// True-currently employed, False-no longer employed\n\n        bool og_employee;/* \n                          saves gas by id'ing each employee as og/true (the original locked team) \n                          or new/false (new employes). This way we can just save the durations and amounts\n                          in two single variables in the contract instead of saving them for each og employee\n                         */\n    }\n\n    //Variables\n    Employee[] _employees;// array with all the employee arrays\n    uint256  _initLock;// initial lock period (2 years)\n    uint256 _erc20Released;// total amount of released tokens\n    uint256 _numMilestones;// number of milestones (number of payments for each employee)\n    uint256 _OGTeamTokens;// tokens that belong to the OG team\n    uint256 _numOGEmployees;// number of OG employess\n    uint256 _leftover;// tokens destined to new employess\n    address _token;// token address\n\n    //Functions\n    /**\n     * @dev Set the beneficiary, start timestamp and locking durations and amounts.\n     */\n    constructor(\n        IVotes wDHN,\n        uint256 numMilestones,\n        uint256 ogTeamTokens,\n        uint256 initLock,\n        address tokenAdress,\n        address[] memory lockedTeamAddresses,\n        uint256[] memory lockedTeamTokens\n    ) {\n\n        _wDHN=wDHN;\n        // number of milestones\n        _numMilestones = numMilestones;\n\n        // number of OG employees\n        _numOGEmployees = lockedTeamAddresses.length;\n\n        // get the number of tokens destined for the OG team\n        _OGTeamTokens = ogTeamTokens;\n\n        // create an employee struct for each OG employee\n        for (uint i=0; i<lockedTeamAddresses.length; i++){\n\n            // employee address can't be the zero address\n            require(lockedTeamAddresses[i] != address(0), \"Constructor: locked team address is zero address\");\n\n            // get the amount of tokens that belong to each og employee\n            uint256 _amount = _OGTeamTokens/(_numOGEmployees);\n\n            // create the new employee struct\n            Employee memory employee = Employee(lockedTeamAddresses[i], 0, _amount, uint64(block.timestamp), 0, true, true);\n\n            // push the new employee struct to the employees array\n            _employees.push(employee);\n\n            // map the new employee address to its struct\n            _walletToEmployee[lockedTeamAddresses[i]]=employee;\n\n            // delegate future token votes, to the employee\n            delegate_to_employee(lockedTeamAddresses[i], _amount);\n        }\n\n        // establish token address\n        _token = tokenAdress;\n        _wDHN = wDHN;\n\n        // establish the durations periods \n        _initLock = initLock;\n    }\n\n\n    /**\n     * @dev Modifier that only allows current employess to interact with certain functions\n     */\n    modifier onlyEmployees(address callerAddress){\n        require(_walletToEmployee[callerAddress].employment_status == true, 'This address is no a current employee');\n        _;\n    }\n\n\n    /**\n     * @dev Calculates the date of the next milestone (used to see if the milestone has passed or not)\n     * --TO DO: remove the if stament, possibly only needed line 136 \n     * (need to see if 30 days can be multiplied by zero)\n     */\n    function get_date(address _callerAddress) public view virtual returns (uint256) {\n\n        // get the last milestone the employee received\n        uint16 currentMileStone = _walletToEmployee[_callerAddress].milestone;\n        // get the time the lock period began for this employee\n        uint64 lock_start = _walletToEmployee[_callerAddress].lock_start;\n\n        /* the date is equal to the locking start date + the lock \n         time (2 years) + a month for each milestone already retrived\n        */\n        uint256 milestone_date = lock_start + _initLock+ (30 days)*currentMileStone;\n        \n        // return the date of the next milestone \n        return milestone_date;\n    }\n\n\n    /**\n     * @dev Release the tokens according to milestone passage.\n     *\n     * Emits a {ERC20Released} event.\n     */\n    function release() public virtual onlyEmployees(msg.sender){\n        uint256 releasable = _vestingSchedule(msg.sender, uint64(block.timestamp));\n        _erc20Released += releasable;\n        emit ERC20Released(_token, releasable);\n        SafeERC20.safeTransfer(IERC20(_token), msg.sender, releasable);\n    }\n\n\n    /**\n     * @dev This returns the amount of tokens that can be withdrawn, as function of milestones passed.\n     */\n    function _vestingSchedule(address _callerAddress, uint64 timestamp) internal virtual returns (uint256) {\n        // get the last milestone the employee received\n        uint16 currentMileStone = _walletToEmployee[_callerAddress].milestone;\n\n        require(currentMileStone < _numMilestones, \"All milestone rewards have been claimed\");\n\n        //If the time is superior to the current milestone duration...\n        if (timestamp > get_date(_callerAddress)) {\n            //...we save the the amount we can withdraw in this milestone.\n\n            // get the amount of tokens that belong to each employee\n            uint256 can_withdraw = _walletToEmployee[_callerAddress].tokens_promised/(_numMilestones);\n\n            //Increment the milestone of a particular employee (if it is not the last milestone)\n            _walletToEmployee[_callerAddress].milestone = _walletToEmployee[_callerAddress].milestone+1;\n\n            //Return the amount to withdraw this milestone\n            return can_withdraw;\n\n        } else {\n            return 0;\n        }\n    }\n\n    /**\n     * @dev Adds a new employee. --TO DO: See how the split enters--\n     */\n    function new_employee(uint256 amount, address new_employee_address) public {\n            // create the new employee struct\n            Employee memory employee = Employee(new_employee_address, 0, amount, uint64(block.timestamp),0, true, false);\n\n            // push the new employee struct to the employees array\n            _employees.push(employee);\n\n            // map the new employee address to its struct\n            _walletToEmployee[new_employee_address]=employee;\n\n            // delegate future token votes, to the employee\n            _wDHN.delegate(new_employee_address, amount);\n    }\n\n    /**\n     * @dev Changes the employee status of an employee who is quitting. --TO DO: Make multi-sig--\n     */\n    function remove_employee(address employeeAddress) public {\n        _walletToEmployee[employeeAddress].employment_status = false;\n    }\n\n    /**\n     * @dev Delegates the voting power to the\n     */\n    function delegate_to_employee(address employee, uint256 amount) internal {\n        _wDHN.delegate(employee, amount);\n    }\n}",
  "sourcePath": "contracts/LockContract.sol",
  "type": "contract"
}